:020000040800F2
:100000007006002065010008CF0B0008CD0B00082A
:1000100000000000000000000000000000000000E0
:10002000000000000000000000000000D30B0008EA
:100030000000000000000000D10B0008D50B0008F4
:100040007701000800000000770100087701000830
:1000500077010008770100087701000877010008A0
:100060000000000077010008770100087701000810
:100070007701000877010008770100080000000000
:100080007701000877010008770100087701000870
:100090007701000877010008770100087701000860
:1000A0007701000877010008770100087701000850
:1000B00077010008770100080000000077010008C0
:1000C00000F002F800F03EF80CA030C80838241800
:1000D0002D18A246671EAB4654465D46AC4201D180
:1000E00000F030F87E460F3E0FCCB6460126334274
:1000F00000D0FB1AA246AB46334318474C0C000015
:100100006C0C0000103A02D378C878C1FAD85207B4
:1001100001D330C830C101D504680C6070470000BD
:100120000023002400250026103A01D378C1FBD813
:10013000520700D330C100D50B6070471FB51FBDFB
:1001400010B510BD00F05BF91146FFF7F7FF00F0A6
:10015000B1FD00F073F903B4FFF7F2FF03BC00F048
:1001600079F900000748804707480047FEE7FEE7A7
:10017000FEE7FEE7FEE7FEE704480549054A064BB1
:1001800070470000DD0B0008C1000008700000206F
:10019000700600207002002070020020FEB50546A7
:1001A00010460C46184373D0AE468C460020AD1A5C
:1001B00001469C4167D36646002701243D46B61A96
:1001C0009D4102D313463A462124654676462F04C4
:1001D000360C3E432D0CB61A9D4104D3150C1B045E
:1001E0002B4312041034654676462F06360A3E43EA
:1001F0002D0AB61A9D4104D3150E1B022B43120281
:100200000834654676462F0736093E432D09B61A4F
:100210009D4104D3150F1B012B431201241D65467C
:100220007646AF07B6083E43AD08B61A9D4104D3E3
:10023000950F9B002B439200A41C65467646EF0762
:1002400076083E436D08B61A9D411AD392185B4159
:10025000641C16E00018764665464941B71A9D4170
:100260000191009009D36046B11A98418E468446A8
:10027000009801990025401C6941DD0752082A4376
:100280005B08641EE6D57246634603B0F0BDFFE727
:1002900000200146C046C0462A462346F5E7002214
:1002A00003098B422CD3030A8B4211D300239C46B3
:1002B0004EE003460B433CD4002243088B4231D32B
:1002C00003098B421CD3030A8B4201D394463FE0BF
:1002D000C3098B4201D3CB01C01A524183098B421F
:1002E00001D38B01C01A524143098B4201D34B0108
:1002F000C01A524103098B4201D30B01C01A52416B
:10030000C3088B4201D3CB00C01A524183088B42F1
:1003100001D38B00C01A524143088B4201D34B00DA
:10032000C01A5241411A00D201465241104670474C
:100330005DE0CA0F00D04942031000D34042534051
:1003400000229C4603098B422DD3030A8B4212D311
:10035000FC22890112BA030A8B420CD38901921143
:100360008B4208D3890192118B4204D389013AD080
:10037000921100E08909C3098B4201D3CB01C01A55
:10038000524183098B4201D38B01C01A5241430968
:100390008B4201D34B01C01A524103098B4201D356
:1003A0000B01C01A5241C3088B4201D3CB00C01AC3
:1003B000524183088B4201D38B00C01A5241D9D2DB
:1003C00043088B4201D34B00C01A5241411A00D25C
:1003D0000146634652415B10104601D34042002B58
:1003E00000D54942704763465B1000D3404201B5D7
:1003F0000020C046C04602BD704770477047754632
:1004000000F024F8AE46050069465346C008C00017
:10041000854618B020B5FFF7AFFE60BC002749083D
:10042000B6460026C0C5C0C5C0C5C0C5C0C5C0C58C
:10043000C0C5C0C5403D49008D46704710B5044653
:10044000C046C0462046FFF786FE10BD00487047F4
:100450001000002001491820ABBEFEE72600020074
:100460007047000070B5044600F0CEF80546601CE9
:1004700002D004480078241800F0C6F8401BA042BF
:10048000FAD370BD04000020FCB500230124A1E0D4
:1004900027462A469F403A4073D04D68012D05D02B
:1004A000022D03D0112D01D0122D16D185680326FF
:1004B000AC465D00AE46AE406546B543AC46CE6840
:1004C0007546AE4065462E43866046680D79BE434C
:1004D000ED06ED0F9D4035434560C6685F0003257E
:1004E000BD40AE46AE4335468E68BE402E43C66024
:1004F0004E68022E01D0122E14D1DE08B600361836
:100500000196366A5D07B446EE0E0F25B54000969B
:100510006646AE43B4460D69009EB54066462E431E
:10052000019D2E6206687546AE430D79AD07AD0F8D
:10053000BD40354305604D68ED004AD5284DAE6994
:100540002643AE61AD699E08ED07ED0F0095254D80
:10055000B6007519AC46AD689E07360F0F27B74039
:10056000BD430927FF06B84201D1002710E01E4F06
:10057000B84201D101270BE01C4FB84202D102273B
:1005800006E026E01A4FB84201D1032700E0052714
:10059000B7402F436546AF60164E35684F689543A8
:1005A000FF0300D51543356075684F689543BF0359
:1005B00000D515437560B5684F689543FF0200D5B7
:1005C0001543B560F5684F689543BF0200D51543E4
:1005D000F5605B1C0A681546DA4000D058E7FCBDA0
:1005E00000100240000001400004004800080048DC
:1005F000000C004800040140426913460B401B04F4
:1006000091430B4383617047014880687047000045
:1006100004000020024881680278891881607047D0
:100620000400002010B50648016810221143016043
:10063000032000F007F800F027F8002010BD0000AC
:100640000020024070B504460D4D7D202978C00081
:10065000FFF725FE01460B480068FFF720FE00F07B
:100660009DFA002809D1042C07D200222146401E01
:1006700000F00BF800206C6070BD012070BD000020
:100680000400002000000020704710B500F0F0FAD0
:1006900010BD0000F8B50F46060059D03A4D286845
:1006A000C007C00FB84209D228684008400038434C
:1006B00028602868C007C00FB84249D13068334C61
:1006C00081070CD5400704D560680721090208435B
:1006D00060606068F0218843B168084360603078EA
:1006E000C00726D0706801280ED0216802280ED0DD
:1006F000890700292CDA6168890889000143616053
:10070000FFF782FF00900DE021688903F1E789017E
:10071000EFE7FFF779FF0099411A1D48814201D99F
:100720000320F8BD60680C21084071688900884288
:10073000EFD12868C007C00FB8420BD9286840081D
:100740004000384328602868C007C00FB84201D075
:100750000120F8BD3078400706D5606807210902FE
:100760008843F1680843606000F018F86168094A3E
:100770000906090F515CC840074908600320FFF7CC
:1007800061FF0020F8BD0000002002400010024080
:1007900088130000380D00080000002010B513A3D6
:1007A0000FCB88B06C460FC414A30FCB0FC41749EE
:1007B0004B680C201A4602401548042A13D0082A18
:1007C00011D19A02120F6C46A45CC96A04AA0907E7
:1007D000090F525CD903890F00231946FFF7DEFC8D
:1007E000214600F02DFA08B010BD000002030405F8
:1007F000060708090A0B0C0D0E0F10100102030466
:1008000005060708090A0B0C0D0E0F100010024018
:1008100000127A00FEB5040071D02078DC4DC007CC
:1008200049D068680007800F012820D06868000759
:10083000800F022804D16868C003800F022816D0F8
:10084000012062680004012A18D08100002A01D02A
:10085000052A17D02A6882432A60286888432860BE
:10086000606800281BD0FFF7CFFE064613E028681B
:10087000800320D560680028CED01CE029680143A1
:100880002960EDE72A680A432A60F7E7FFF7BCFE14
:10089000801B642870D828688003F7D50BE0FFF729
:1008A000B3FE064604E0FFF7AFFE801B6428F1D8D4
:1008B00028688003F7D420780126800700283EDAD4
:1008C00068680007800F13D068680007800F02284F
:1008D00004D16868C003800F012809D0E0680028AF
:1008E00028681DD030432860FFF78EFE07460CE0D5
:1008F000286880070CD5E068012800D108E043E1B2
:10090000FFF782FEC01B0228C4D828688007F7D5ED
:100910002868F82188432169C900084328600EE04F
:10092000400840002860FFF76FFE074604E0FFF72D
:100930006BFEC01B0228ADD828688007F7D420784A
:10094000000722D5E0690028686A0ED0304368624B
:10095000FFF75AFE074604E0FFF756FEC01B0228C9
:1009600098D8686A8007F7D50FE0400840006862B1
:10097000FFF74AFE074605E09DE0FFF745FEC01B76
:10098000022887D8686A8007F7D4207804274007B0
:10099000002860DA00200190E869C00008D4E96905
:1009A000B8060143E961E969014001200091019025
:1009B00078480168C90511D40168821511430160A6
:1009C000FFF722FE009005E0FFF71EFE0099401A97
:1009D000642870D86F480068C005F5D5A068012864
:1009E0000AD0002801D0052810D0286A400840000D
:1009F0002862286AB84301E0286A30432862A06868
:100A0000002812D0FFF700FE00900AE0286A384361
:100A10002862F1E7FFF7F8FD0099411A5E4881422C
:100A200049D8286A8007F5D50DE0FFF7EDFD009065
:100A300006E0FFF7E9FD0099411A574881423AD88C
:100A4000286A8007F5D40198002804D0E8690121BC
:100A500009078843E8612078C00635D56069012818
:100A60000CD0401D686B23D038436863686B400826
:100A700040006863FFF7C8FD064622E0686B384314
:100A80006863686B30436863FFF7BEFD064604E0A9
:100A9000FFF7BAFD801B02285BD8686B8007F7D58B
:100AA000686BF8218843A169C900084368630BE0BB
:100AB000B8436863F4E74CE0FFF7A6FD801B02280B
:100AC00047D8686B8007F7D4206A00285ED0696831
:100AD0000907890F022942D0012636060228286814
:100AE00005D0B0432860FFF78FFD044633E0B043E4
:100AF0002860FFF789FD074604E0FFF785FDC01B6E
:100B0000022826D828688001F7D4E86AE16A00093B
:100B100000010843E862616AA06A084369687B22B1
:100B2000D203914308436860286830432860FFF788
:100B30006BFD044604E0FFF767FD001B022808D8A0
:100B400028688001F7D521E0FFF75EFD001B022831
:100B500001D90320FEBD28688001F5D416E00128E4
:100B6000F8D06868E96A0322D203636A02409A42B5
:100B70000AD10907E26A090F914205D10F218904C0
:100B80000840A16A884201D00120FEBD0020FEBDC0
:100B9000001002400070004088130000094910B5A1
:100BA000401E884201D9012010BD074C606103211D
:100BB000081F00F05DF80020A061072020610020E0
:100BC00010BD0000FFFFFF0000E000E0FEE77047FF
:100BD0007047704710B5FFF71DFD10BD154801683F
:100BE0000122114301604168134A114041600168CC
:100BF000124A114001600168012292049143016090
:100C000041683F22120491434160C16A0909090108
:100C1000C162016BFF22943291430163016B802218
:100C200011430163416B4908490041630021816020
:100C300070470000001002400CB8FF08FFFFF6FEEE
:100C4000F8B5040C8BB2264682B25E430D0C1046FA
:100C5000370C5843360480190021794116466E43FB
:100C6000370C36048019794126466E438919F8BD40
:100C70008307FF22DB0E9A408907090E994000285E
:100C800008DB830809489B001B1818689043084339
:100C9000186070470007000F0838830804489B005D
:100CA0001B18D86990430843D861704700E400E0FE
:100CB00000ED00E096B0FFF7B5FC1020049002258F
:100CC000C0020990012600954001039600240A9075
:100CD00008950B946846FFF79DFD002800D0FEE7BD
:100CE00007201190139401211295149411A8FFF775
:100CF000D1FC002800D0FEE70E48426901214904DA
:100D00000A43426140690F9408400E9400902020ED
:100D10000CA941C10924E40620460839FFF7B4FBB9
:100D2000FF25F53520212046FFF766FC2846FFF712
:100D300099FBF7E7001002400000000000000000EF
:100D40000102030406070809680D000800000020DE
:100D50001000000004010008780D000810000020B9
:100D6000600600002001000800127A000100000067
:080D7000040000000000000077
:04000005080000C12E
:00000001FF
